:020000040800F2
:100000000050002003010008FD000008FD0000086A
:10001000FD000008FD000008FD00000800000000D1
:10002000000000000000000000000000FD000008CB
:100030000000000000000000FD000008FD000008B6
:10004000FD000008FD000008FD000008FD0000089C
:10005000FD000008FD000008FD000008FD0000088C
:10006000FD000008FD000008FD000008FD0000087C
:10007000FD000008FD000008FD000008FD0000086C
:10008000FD000008FD000008FD000008FD0000085C
:10009000FD000008FD000008FD000008FD0000084C
:1000A000FD000008FD000008FD000008FD0000083C
:1000B000FD000008FD000008FD000008FD0000082C
:1000C000FD000008FD000008FD000008FD0000081C
:1000D000FD000008FD000008FD000008FD0000080C
:0C00E000FD000008FD000008FD00000805
:1000EC0080B400AF00231846BD4680BC70470000AA
:1000FC0080B400AFFEE780B582B000AF0F4B7B60E1
:10010C000F4B3B6007E07A68131D7B603B68191D41
:10011C00396012681A603B680A4A9342F3D30A4B5F
:10012C003B6004E03B681A1D3A6000221A603B6891
:10013C00064A9342F6D3FFF7D3FFFEE75C010008B3
:10014C000000002000000020000000000000000063
:0400000508000103EB
:00000001FF
