:020000040800F2
:1000000000500020130400080D0400080D0400082F
:100010000D0400080D0400080D0400080000000095
:100020000000000000000000000000000D040008B7
:1000300000000000000000000D0400080D0400088E
:100040000D0400080D0400080D0400080D0400084C
:100050000D0400080D0400080D0400080D0400083C
:100060000D0400080D0400080D0400080D0400082C
:100070000D0400080D0400080D0400080D0400081C
:100080000D0400080D0400080D0400080D0400080C
:100090000D0400080D0400080D0400080D040008FC
:1000A0000D0400080D0400080D0400080D040008EC
:1000B0000D0400080D0400080D0400080D040008DC
:1000C0000D0400080D0400080D0400080D040008CC
:1000D0000D0400080D0400080D0400080D040008BC
:0C00E0000D0400080D0400080D040008C9
:1000EC0080B485B000AF03460A46FB711346BB8053
:1000FC000023FB8100237B73BB88002B04D0BB88BF
:10010C00FB8101237B7303E00023FB8100237B73C2
:10011C00FB89B3F57A7F02D340F2E733FB81FB799D
:10012C00012B30D17B7B012B0CD1304B1B692F4A1F
:10013C0043F0100313612D4B5B692C4A43F02003F1
:10014C0053611BE07B7B022B0CD1284B5B69274A4C
:10015C0043F010035361254B1B69244A43F02003E1
:10016C0013610BE0214B5B69204A43F01003536190
:10017C001E4B5B691D4A43F0200353614FF08042D4
:10018C00FB8993632CE0FB79022B29D17B7B012B20
:10019C000CD1164B1B69154A43F040031361134BEA
:1001AC005B69124A43F08003536115E07B7B022BA1
:1001BC000CD10E4B5B690D4A43F0400353610B4B62
:1001CC001B690A4A43F08003136105E0074B5B6926
:1001DC00064A43F0C00353614FF08042FB8993639E
:1001EC0000BF1437BD4680BC704700BF000C0140F7
:1001FC0080B582B000AF0346FB80FB881946012016
:10020C00FFF76EFFFB8819460220FFF769FF00BF5E
:10021C000837BD4680BD80B582B000AF0346FB8079
:10022C00FB885B429BB219460120FFF759FFFB8804
:10023C005B429BB219460220FFF752FF00BF083702
:10024C00BD4680BD80B582B000AF0346FB80FB8805
:10025C005B429BB219460120FFF742FFFB8819460F
:10026C000220FFF73DFF00BF0837BD4680BD80B5BB
:10027C0082B000AF0346FB80FB8819460120FFF7D4
:10028C002FFFFB885B429BB219460220FFF728FF29
:10029C0000BF0837BD4680BD80B500AF00210120EE
:1002AC00FFF71EFF00210220FFF71AFF00BF80BDE1
:1002BC0080B483B000AF786000BF7B685A1E7A6050
:1002CC00002BFAD100BF00BF0C37BD4680BC704775
:1002DC0080B500AF464B9B69454A43F00D039361D3
:1002EC00434BDB69424A43F00103D361414B5B68EA
:1002FC00404A43F0007353603F4B1B683E4A23F463
:10030C00706313603C4B1B683B4A23F0F003136093
:10031C00394B1B68384A43F43B631360374B1B68FB
:10032C00364A9BB21360354B5B68344A23F01E038C
:10033C005360324B1B68314A43F0885343F48813A3
:10034C0013602E4B5B682D4A43F0020353604FF051
:10035C00804307229A624FF0804340F2E732DA6220
:10036C004FF080439B694FF0804223F4E04393614C
:10037C004FF080439B694FF0804243F420439361DC
:10038C004FF08043DB694FF0804223F07003D36160
:10039C004FF08043DB694FF0804243F0A003D36100
:1003AC004FF080431B6A4FF0804243F0010313620D
:1003BC004FF080430A229A634FF080430A22DA639B
:1003CC004FF080431B684FF0804243F001031360F1
:1003DC006420FFF70DFF42F21070FFF769FF6420F5
:1003EC00FFF719FF42F21070FFF762FFF0E700BF52
:1003FC00001002400000014000080140000C0140C8
:10040C0080B400AFFEE780B582B000AF0F4B7B60CD
:10041C000F4B3B6007E07A68131D7B603B68191D2E
:10042C00396012681A603B680A4A9342F3D30A4B4C
:10043C003B6004E03B681A1D3A6000221A603B687E
:10044C00064A9342F6D3FFF743FFFEE76C0400081D
:10045C000000002000000020000000000000000050
:0400000508000413D8
:00000001FF
